{
  "_format": "hh-sol-artifact-1",
  "contractName": "NFTMarketplace",
  "sourceName": "contracts/NFTMarketplace.sol",
  "abi": [
    {
      "inputs": [],
      "stateMutability": "nonpayable",
      "type": "constructor"
    },
    {
      "anonymous": false,
      "inputs": [
        {
          "indexed": true,
          "internalType": "address",
          "name": "owner",
          "type": "address"
        },
        {
          "indexed": true,
          "internalType": "address",
          "name": "approved",
          "type": "address"
        },
        {
          "indexed": true,
          "internalType": "uint256",
          "name": "tokenId",
          "type": "uint256"
        }
      ],
      "name": "Approval",
      "type": "event"
    },
    {
      "anonymous": false,
      "inputs": [
        {
          "indexed": true,
          "internalType": "address",
          "name": "owner",
          "type": "address"
        },
        {
          "indexed": true,
          "internalType": "address",
          "name": "operator",
          "type": "address"
        },
        {
          "indexed": false,
          "internalType": "bool",
          "name": "approved",
          "type": "bool"
        }
      ],
      "name": "ApprovalForAll",
      "type": "event"
    },
    {
      "anonymous": false,
      "inputs": [
        {
          "indexed": false,
          "internalType": "uint256",
          "name": "_fromTokenId",
          "type": "uint256"
        },
        {
          "indexed": false,
          "internalType": "uint256",
          "name": "_toTokenId",
          "type": "uint256"
        }
      ],
      "name": "BatchMetadataUpdate",
      "type": "event"
    },
    {
      "anonymous": false,
      "inputs": [
        {
          "indexed": false,
          "internalType": "uint256",
          "name": "_tokenId",
          "type": "uint256"
        }
      ],
      "name": "MetadataUpdate",
      "type": "event"
    },
    {
      "anonymous": false,
      "inputs": [
        {
          "indexed": true,
          "internalType": "address",
          "name": "from",
          "type": "address"
        },
        {
          "indexed": true,
          "internalType": "address",
          "name": "to",
          "type": "address"
        },
        {
          "indexed": true,
          "internalType": "uint256",
          "name": "tokenId",
          "type": "uint256"
        }
      ],
      "name": "Transfer",
      "type": "event"
    },
    {
      "inputs": [
        {
          "internalType": "address",
          "name": "to",
          "type": "address"
        },
        {
          "internalType": "uint256",
          "name": "tokenId",
          "type": "uint256"
        }
      ],
      "name": "approve",
      "outputs": [],
      "stateMutability": "nonpayable",
      "type": "function"
    },
    {
      "inputs": [
        {
          "internalType": "address",
          "name": "owner",
          "type": "address"
        }
      ],
      "name": "balanceOf",
      "outputs": [
        {
          "internalType": "uint256",
          "name": "",
          "type": "uint256"
        }
      ],
      "stateMutability": "view",
      "type": "function"
    },
    {
      "inputs": [
        {
          "internalType": "uint256",
          "name": "tokenId",
          "type": "uint256"
        }
      ],
      "name": "buyItem",
      "outputs": [],
      "stateMutability": "payable",
      "type": "function"
    },
    {
      "inputs": [
        {
          "internalType": "uint256",
          "name": "tokenId",
          "type": "uint256"
        }
      ],
      "name": "getApproved",
      "outputs": [
        {
          "internalType": "address",
          "name": "",
          "type": "address"
        }
      ],
      "stateMutability": "view",
      "type": "function"
    },
    {
      "inputs": [],
      "name": "getAvailableNFTs",
      "outputs": [
        {
          "components": [
            {
              "internalType": "uint256",
              "name": "tokenId",
              "type": "uint256"
            },
            {
              "internalType": "address",
              "name": "seller",
              "type": "address"
            },
            {
              "internalType": "uint256",
              "name": "price",
              "type": "uint256"
            }
          ],
          "internalType": "struct NFTMarketplace.Listing[]",
          "name": "",
          "type": "tuple[]"
        }
      ],
      "stateMutability": "view",
      "type": "function"
    },
    {
      "inputs": [
        {
          "internalType": "address",
          "name": "owner",
          "type": "address"
        },
        {
          "internalType": "address",
          "name": "operator",
          "type": "address"
        }
      ],
      "name": "isApprovedForAll",
      "outputs": [
        {
          "internalType": "bool",
          "name": "",
          "type": "bool"
        }
      ],
      "stateMutability": "view",
      "type": "function"
    },
    {
      "inputs": [
        {
          "internalType": "uint256",
          "name": "tokenId",
          "type": "uint256"
        },
        {
          "internalType": "uint256",
          "name": "price",
          "type": "uint256"
        }
      ],
      "name": "listItem",
      "outputs": [],
      "stateMutability": "nonpayable",
      "type": "function"
    },
    {
      "inputs": [
        {
          "internalType": "uint256",
          "name": "",
          "type": "uint256"
        }
      ],
      "name": "listings",
      "outputs": [
        {
          "internalType": "uint256",
          "name": "tokenId",
          "type": "uint256"
        },
        {
          "internalType": "address",
          "name": "seller",
          "type": "address"
        },
        {
          "internalType": "uint256",
          "name": "price",
          "type": "uint256"
        }
      ],
      "stateMutability": "view",
      "type": "function"
    },
    {
      "inputs": [
        {
          "internalType": "string",
          "name": "tokenURI",
          "type": "string"
        }
      ],
      "name": "mint",
      "outputs": [
        {
          "internalType": "uint256",
          "name": "",
          "type": "uint256"
        }
      ],
      "stateMutability": "nonpayable",
      "type": "function"
    },
    {
      "inputs": [],
      "name": "name",
      "outputs": [
        {
          "internalType": "string",
          "name": "",
          "type": "string"
        }
      ],
      "stateMutability": "view",
      "type": "function"
    },
    {
      "inputs": [
        {
          "internalType": "uint256",
          "name": "tokenId",
          "type": "uint256"
        }
      ],
      "name": "ownerOf",
      "outputs": [
        {
          "internalType": "address",
          "name": "",
          "type": "address"
        }
      ],
      "stateMutability": "view",
      "type": "function"
    },
    {
      "inputs": [
        {
          "internalType": "address",
          "name": "from",
          "type": "address"
        },
        {
          "internalType": "address",
          "name": "to",
          "type": "address"
        },
        {
          "internalType": "uint256",
          "name": "tokenId",
          "type": "uint256"
        }
      ],
      "name": "safeTransferFrom",
      "outputs": [],
      "stateMutability": "nonpayable",
      "type": "function"
    },
    {
      "inputs": [
        {
          "internalType": "address",
          "name": "from",
          "type": "address"
        },
        {
          "internalType": "address",
          "name": "to",
          "type": "address"
        },
        {
          "internalType": "uint256",
          "name": "tokenId",
          "type": "uint256"
        },
        {
          "internalType": "bytes",
          "name": "data",
          "type": "bytes"
        }
      ],
      "name": "safeTransferFrom",
      "outputs": [],
      "stateMutability": "nonpayable",
      "type": "function"
    },
    {
      "inputs": [
        {
          "internalType": "address",
          "name": "operator",
          "type": "address"
        },
        {
          "internalType": "bool",
          "name": "approved",
          "type": "bool"
        }
      ],
      "name": "setApprovalForAll",
      "outputs": [],
      "stateMutability": "nonpayable",
      "type": "function"
    },
    {
      "inputs": [
        {
          "internalType": "bytes4",
          "name": "interfaceId",
          "type": "bytes4"
        }
      ],
      "name": "supportsInterface",
      "outputs": [
        {
          "internalType": "bool",
          "name": "",
          "type": "bool"
        }
      ],
      "stateMutability": "view",
      "type": "function"
    },
    {
      "inputs": [],
      "name": "symbol",
      "outputs": [
        {
          "internalType": "string",
          "name": "",
          "type": "string"
        }
      ],
      "stateMutability": "view",
      "type": "function"
    },
    {
      "inputs": [
        {
          "internalType": "uint256",
          "name": "tokenId",
          "type": "uint256"
        }
      ],
      "name": "tokenURI",
      "outputs": [
        {
          "internalType": "string",
          "name": "",
          "type": "string"
        }
      ],
      "stateMutability": "view",
      "type": "function"
    },
    {
      "inputs": [
        {
          "internalType": "address",
          "name": "from",
          "type": "address"
        },
        {
          "internalType": "address",
          "name": "to",
          "type": "address"
        },
        {
          "internalType": "uint256",
          "name": "tokenId",
          "type": "uint256"
        }
      ],
      "name": "transferFrom",
      "outputs": [],
      "stateMutability": "nonpayable",
      "type": "function"
    }
  ],
  "bytecode": "0x608060405234801561001057600080fd5b506040518060400160405280600781526020017f446166614e4654000000000000000000000000000000000000000000000000008152506040518060400160405280600481526020017f444e465400000000000000000000000000000000000000000000000000000000815250816000908161008c91906102f4565b50806001908161009c91906102f4565b5050506103c6565b600081519050919050565b7f4e487b7100000000000000000000000000000000000000000000000000000000600052604160045260246000fd5b7f4e487b7100000000000000000000000000000000000000000000000000000000600052602260045260246000fd5b6000600282049050600182168061012557607f821691505b602082108103610138576101376100de565b5b50919050565b60008190508160005260206000209050919050565b60006020601f8301049050919050565b600082821b905092915050565b6000600883026101a07fffffffffffffffffffffffffffffffffffffffffffffffffffffffffffffffff82610163565b6101aa8683610163565b95508019841693508086168417925050509392505050565b6000819050919050565b6000819050919050565b60006101f16101ec6101e7846101c2565b6101cc565b6101c2565b9050919050565b6000819050919050565b61020b836101d6565b61021f610217826101f8565b848454610170565b825550505050565b600090565b610234610227565b61023f818484610202565b505050565b5b818110156102635761025860008261022c565b600181019050610245565b5050565b601f8211156102a8576102798161013e565b61028284610153565b81016020851015610291578190505b6102a561029d85610153565b830182610244565b50505b505050565b600082821c905092915050565b60006102cb600019846008026102ad565b1980831691505092915050565b60006102e483836102ba565b9150826002028217905092915050565b6102fd826100a4565b67ffffffffffffffff811115610316576103156100af565b5b610320825461010d565b61032b828285610267565b600060209050601f83116001811461035e576000841561034c578287015190505b61035685826102d8565b8655506103be565b601f19841661036c8661013e565b60005b828110156103945784890151825560018201915060208501945060208101905061036f565b868310156103b157848901516103ad601f8916826102ba565b8355505b6001600288020188555050505b505050505050565b613500806103d56000396000f3fe6080604052600436106101095760003560e01c8063883efa6711610095578063c87b56dd11610064578063c87b56dd14610379578063d85d3d27146103b6578063de74e57b146103f3578063e7fb74c714610432578063e985e9c51461044e57610109565b8063883efa67146102d357806395d89b41146102fc578063a22cb46514610327578063b88d4fde1461035057610109565b806323b872dd116100dc57806323b872dd146101dc57806332702c951461020557806342842e0e146102305780636352211e1461025957806370a082311461029657610109565b806301ffc9a71461010e57806306fdde031461014b578063081812fc14610176578063095ea7b3146101b3575b600080fd5b34801561011a57600080fd5b5061013560048036038101906101309190612070565b61048b565b60405161014291906120b8565b60405180910390f35b34801561015757600080fd5b506101606104ec565b60405161016d9190612163565b60405180910390f35b34801561018257600080fd5b5061019d600480360381019061019891906121bb565b61057e565b6040516101aa9190612229565b60405180910390f35b3480156101bf57600080fd5b506101da60048036038101906101d59190612270565b6105c4565b005b3480156101e857600080fd5b5061020360048036038101906101fe91906122b0565b6106db565b005b34801561021157600080fd5b5061021a61073b565b6040516102279190612412565b60405180910390f35b34801561023c57600080fd5b50610257600480360381019061025291906122b0565b6108f5565b005b34801561026557600080fd5b50610280600480360381019061027b91906121bb565b610915565b60405161028d9190612229565b60405180910390f35b3480156102a257600080fd5b506102bd60048036038101906102b89190612434565b61099b565b6040516102ca9190612470565b60405180910390f35b3480156102df57600080fd5b506102fa60048036038101906102f5919061248b565b610a52565b005b34801561030857600080fd5b50610311610b6e565b60405161031e9190612163565b60405180910390f35b34801561033357600080fd5b5061034e600480360381019061034991906124f7565b610c00565b005b34801561035c57600080fd5b506103776004803603810190610372919061266c565b610c16565b005b34801561038557600080fd5b506103a0600480360381019061039b91906121bb565b610c78565b6040516103ad9190612163565b60405180910390f35b3480156103c257600080fd5b506103dd60048036038101906103d89190612790565b610d8a565b6040516103ea9190612470565b60405180910390f35b3480156103ff57600080fd5b5061041a600480360381019061041591906121bb565b610dc1565b604051610429939291906127d9565b60405180910390f35b61044c600480360381019061044791906121bb565b610e0b565b005b34801561045a57600080fd5b5061047560048036038101906104709190612810565b610fd2565b60405161048291906120b8565b60405180910390f35b6000634906490660e01b7bffffffffffffffffffffffffffffffffffffffffffffffffffffffff1916827bffffffffffffffffffffffffffffffffffffffffffffffffffffffff191614806104e557506104e482611066565b5b9050919050565b6060600080546104fb9061287f565b80601f01602080910402602001604051908101604052809291908181526020018280546105279061287f565b80156105745780601f1061054957610100808354040283529160200191610574565b820191906000526020600020905b81548152906001019060200180831161055757829003601f168201915b5050505050905090565b600061058982611148565b6004600083815260200190815260200160002060009054906101000a900473ffffffffffffffffffffffffffffffffffffffff169050919050565b60006105cf82610915565b90508073ffffffffffffffffffffffffffffffffffffffff168373ffffffffffffffffffffffffffffffffffffffff160361063f576040517f08c379a000000000000000000000000000000000000000000000000000000000815260040161063690612922565b60405180910390fd5b8073ffffffffffffffffffffffffffffffffffffffff1661065e611193565b73ffffffffffffffffffffffffffffffffffffffff16148061068d575061068c81610687611193565b610fd2565b5b6106cc576040517f08c379a00000000000000000000000000000000000000000000000000000000081526004016106c3906129b4565b60405180910390fd5b6106d6838361119b565b505050565b6106ec6106e6611193565b82611254565b61072b576040517f08c379a000000000000000000000000000000000000000000000000000000000815260040161072290612a46565b60405180910390fd5b6107368383836112e9565b505050565b6060600061074960076115e2565b9050600080600190505b82811161079b5760006008600083815260200190815260200160002060020154111561078857818061078490612a95565b9250505b808061079390612a95565b915050610753565b5060008167ffffffffffffffff8111156107b8576107b7612541565b5b6040519080825280602002602001820160405280156107f157816020015b6107de611fcd565b8152602001906001900390816107d65790505b509050600080600190505b8481116108ea576000600860008381526020019081526020016000206002015411156108d75760086000828152602001908152602001600020604051806060016040529081600082015481526020016001820160009054906101000a900473ffffffffffffffffffffffffffffffffffffffff1673ffffffffffffffffffffffffffffffffffffffff1673ffffffffffffffffffffffffffffffffffffffff1681526020016002820154815250508383815181106108bd576108bc612add565b5b602002602001018190525081806108d390612a95565b9250505b80806108e290612a95565b9150506107fc565b508194505050505090565b61091083838360405180602001604052806000815250610c16565b505050565b600080610921836115f0565b9050600073ffffffffffffffffffffffffffffffffffffffff168173ffffffffffffffffffffffffffffffffffffffff1603610992576040517f08c379a000000000000000000000000000000000000000000000000000000000815260040161098990612b58565b60405180910390fd5b80915050919050565b60008073ffffffffffffffffffffffffffffffffffffffff168273ffffffffffffffffffffffffffffffffffffffff1603610a0b576040517f08c379a0000000000000000000000000000000000000000000000000000000008152600401610a0290612bea565b60405180910390fd5b600360008373ffffffffffffffffffffffffffffffffffffffff1673ffffffffffffffffffffffffffffffffffffffff168152602001908152602001600020549050919050565b3373ffffffffffffffffffffffffffffffffffffffff16610a7283610915565b73ffffffffffffffffffffffffffffffffffffffff1614610ac8576040517f08c379a0000000000000000000000000000000000000000000000000000000008152600401610abf90612c56565b60405180910390fd5b60405180606001604052808381526020013373ffffffffffffffffffffffffffffffffffffffff16815260200182815250600860008481526020019081526020016000206000820151816000015560208201518160010160006101000a81548173ffffffffffffffffffffffffffffffffffffffff021916908373ffffffffffffffffffffffffffffffffffffffff160217905550604082015181600201559050505050565b606060018054610b7d9061287f565b80601f0160208091040260200160405190810160405280929190818152602001828054610ba99061287f565b8015610bf65780601f10610bcb57610100808354040283529160200191610bf6565b820191906000526020600020905b815481529060010190602001808311610bd957829003601f168201915b5050505050905090565b610c12610c0b611193565b838361162d565b5050565b610c27610c21611193565b83611254565b610c66576040517f08c379a0000000000000000000000000000000000000000000000000000000008152600401610c5d90612a46565b60405180910390fd5b610c7284848484611799565b50505050565b6060610c8382611148565b6000600660008481526020019081526020016000208054610ca39061287f565b80601f0160208091040260200160405190810160405280929190818152602001828054610ccf9061287f565b8015610d1c5780601f10610cf157610100808354040283529160200191610d1c565b820191906000526020600020905b815481529060010190602001808311610cff57829003601f168201915b505050505090506000610d2d6117f5565b90506000815103610d42578192505050610d85565b600082511115610d77578082604051602001610d5f929190612cb2565b60405160208183030381529060405292505050610d85565b610d808461180c565b925050505b919050565b6000610d966007611874565b6000610da260076115e2565b9050610dae338261188a565b610db88184611aa7565b80915050919050565b60086020528060005260406000206000915090508060000154908060010160009054906101000a900473ffffffffffffffffffffffffffffffffffffffff16908060020154905083565b600060086000838152602001908152602001600020604051806060016040529081600082015481526020016001820160009054906101000a900473ffffffffffffffffffffffffffffffffffffffff1673ffffffffffffffffffffffffffffffffffffffff1673ffffffffffffffffffffffffffffffffffffffff16815260200160028201548152505090506000816040015111610ede576040517f08c379a0000000000000000000000000000000000000000000000000000000008152600401610ed590612d22565b60405180910390fd5b8060400151341015610f25576040517f08c379a0000000000000000000000000000000000000000000000000000000008152600401610f1c90612d8e565b60405180910390fd5b600081602001519050610f398133856112e9565b8073ffffffffffffffffffffffffffffffffffffffff166108fc349081150290604051600060405180830381858888f19350505050158015610f7f573d6000803e3d6000fd5b50600860008481526020019081526020016000206000808201600090556001820160006101000a81549073ffffffffffffffffffffffffffffffffffffffff021916905560028201600090555050505050565b6000600560008473ffffffffffffffffffffffffffffffffffffffff1673ffffffffffffffffffffffffffffffffffffffff16815260200190815260200160002060008373ffffffffffffffffffffffffffffffffffffffff1673ffffffffffffffffffffffffffffffffffffffff16815260200190815260200160002060009054906101000a900460ff16905092915050565b60007f80ac58cd000000000000000000000000000000000000000000000000000000007bffffffffffffffffffffffffffffffffffffffffffffffffffffffff1916827bffffffffffffffffffffffffffffffffffffffffffffffffffffffff1916148061113157507f5b5e139f000000000000000000000000000000000000000000000000000000007bffffffffffffffffffffffffffffffffffffffffffffffffffffffff1916827bffffffffffffffffffffffffffffffffffffffffffffffffffffffff1916145b80611141575061114082611b4b565b5b9050919050565b61115181611bb5565b611190576040517f08c379a000000000000000000000000000000000000000000000000000000000815260040161118790612b58565b60405180910390fd5b50565b600033905090565b816004600083815260200190815260200160002060006101000a81548173ffffffffffffffffffffffffffffffffffffffff021916908373ffffffffffffffffffffffffffffffffffffffff160217905550808273ffffffffffffffffffffffffffffffffffffffff1661120e83610915565b73ffffffffffffffffffffffffffffffffffffffff167f8c5be1e5ebec7d5bd14f71427d1e84f3dd0314c0f7b2291e5b200ac8c7c3b92560405160405180910390a45050565b60008061126083610915565b90508073ffffffffffffffffffffffffffffffffffffffff168473ffffffffffffffffffffffffffffffffffffffff1614806112a257506112a18185610fd2565b5b806112e057508373ffffffffffffffffffffffffffffffffffffffff166112c88461057e565b73ffffffffffffffffffffffffffffffffffffffff16145b91505092915050565b8273ffffffffffffffffffffffffffffffffffffffff1661130982610915565b73ffffffffffffffffffffffffffffffffffffffff161461135f576040517f08c379a000000000000000000000000000000000000000000000000000000000815260040161135690612e20565b60405180910390fd5b600073ffffffffffffffffffffffffffffffffffffffff168273ffffffffffffffffffffffffffffffffffffffff16036113ce576040517f08c379a00000000000000000000000000000000000000000000000000000000081526004016113c590612eb2565b60405180910390fd5b6113db8383836001611bf6565b8273ffffffffffffffffffffffffffffffffffffffff166113fb82610915565b73ffffffffffffffffffffffffffffffffffffffff1614611451576040517f08c379a000000000000000000000000000000000000000000000000000000000815260040161144890612e20565b60405180910390fd5b6004600082815260200190815260200160002060006101000a81549073ffffffffffffffffffffffffffffffffffffffff02191690556001600360008573ffffffffffffffffffffffffffffffffffffffff1673ffffffffffffffffffffffffffffffffffffffff168152602001908152602001600020600082825403925050819055506001600360008473ffffffffffffffffffffffffffffffffffffffff1673ffffffffffffffffffffffffffffffffffffffff16815260200190815260200160002060008282540192505081905550816002600083815260200190815260200160002060006101000a81548173ffffffffffffffffffffffffffffffffffffffff021916908373ffffffffffffffffffffffffffffffffffffffff160217905550808273ffffffffffffffffffffffffffffffffffffffff168473ffffffffffffffffffffffffffffffffffffffff167fddf252ad1be2c89b69c2b068fc378daa952ba7f163c4a11628f55a4df523b3ef60405160405180910390a46115dd8383836001611bfc565b505050565b600081600001549050919050565b60006002600083815260200190815260200160002060009054906101000a900473ffffffffffffffffffffffffffffffffffffffff169050919050565b8173ffffffffffffffffffffffffffffffffffffffff168373ffffffffffffffffffffffffffffffffffffffff160361169b576040517f08c379a000000000000000000000000000000000000000000000000000000000815260040161169290612f1e565b60405180910390fd5b80600560008573ffffffffffffffffffffffffffffffffffffffff1673ffffffffffffffffffffffffffffffffffffffff16815260200190815260200160002060008473ffffffffffffffffffffffffffffffffffffffff1673ffffffffffffffffffffffffffffffffffffffff16815260200190815260200160002060006101000a81548160ff0219169083151502179055508173ffffffffffffffffffffffffffffffffffffffff168373ffffffffffffffffffffffffffffffffffffffff167f17307eab39ab6107e8899845ad3d59bd9653f200f220920489ca2b5937696c318360405161178c91906120b8565b60405180910390a3505050565b6117a48484846112e9565b6117b084848484611c02565b6117ef576040517f08c379a00000000000000000000000000000000000000000000000000000000081526004016117e690612fb0565b60405180910390fd5b50505050565b606060405180602001604052806000815250905090565b606061181782611148565b60006118216117f5565b90506000815111611841576040518060200160405280600081525061186c565b8061184b84611d89565b60405160200161185c929190612cb2565b6040516020818303038152906040525b915050919050565b6001816000016000828254019250508190555050565b600073ffffffffffffffffffffffffffffffffffffffff168273ffffffffffffffffffffffffffffffffffffffff16036118f9576040517f08c379a00000000000000000000000000000000000000000000000000000000081526004016118f09061301c565b60405180910390fd5b61190281611bb5565b15611942576040517f08c379a000000000000000000000000000000000000000000000000000000000815260040161193990613088565b60405180910390fd5b611950600083836001611bf6565b61195981611bb5565b15611999576040517f08c379a000000000000000000000000000000000000000000000000000000000815260040161199090613088565b60405180910390fd5b6001600360008473ffffffffffffffffffffffffffffffffffffffff1673ffffffffffffffffffffffffffffffffffffffff16815260200190815260200160002060008282540192505081905550816002600083815260200190815260200160002060006101000a81548173ffffffffffffffffffffffffffffffffffffffff021916908373ffffffffffffffffffffffffffffffffffffffff160217905550808273ffffffffffffffffffffffffffffffffffffffff16600073ffffffffffffffffffffffffffffffffffffffff167fddf252ad1be2c89b69c2b068fc378daa952ba7f163c4a11628f55a4df523b3ef60405160405180910390a4611aa3600083836001611bfc565b5050565b611ab082611bb5565b611aef576040517f08c379a0000000000000000000000000000000000000000000000000000000008152600401611ae69061311a565b60405180910390fd5b80600660008481526020019081526020016000209081611b0f91906132e6565b507ff8e1a15aba9398e019f0b49df1a4fde98ee17ae345cb5f6b5e2c27f5033e8ce782604051611b3f9190612470565b60405180910390a15050565b60007f01ffc9a7000000000000000000000000000000000000000000000000000000007bffffffffffffffffffffffffffffffffffffffffffffffffffffffff1916827bffffffffffffffffffffffffffffffffffffffffffffffffffffffff1916149050919050565b60008073ffffffffffffffffffffffffffffffffffffffff16611bd7836115f0565b73ffffffffffffffffffffffffffffffffffffffff1614159050919050565b50505050565b50505050565b6000611c238473ffffffffffffffffffffffffffffffffffffffff16611e57565b15611d7c578373ffffffffffffffffffffffffffffffffffffffff1663150b7a02611c4c611193565b8786866040518563ffffffff1660e01b8152600401611c6e949392919061340d565b6020604051808303816000875af1925050508015611caa57506040513d601f19601f82011682018060405250810190611ca7919061346e565b60015b611d2c573d8060008114611cda576040519150601f19603f3d011682016040523d82523d6000602084013e611cdf565b606091505b506000815103611d24576040517f08c379a0000000000000000000000000000000000000000000000000000000008152600401611d1b90612fb0565b60405180910390fd5b805181602001fd5b63150b7a0260e01b7bffffffffffffffffffffffffffffffffffffffffffffffffffffffff1916817bffffffffffffffffffffffffffffffffffffffffffffffffffffffff191614915050611d81565b600190505b949350505050565b606060006001611d9884611e7a565b01905060008167ffffffffffffffff811115611db757611db6612541565b5b6040519080825280601f01601f191660200182016040528015611de95781602001600182028036833780820191505090505b509050600082602001820190505b600115611e4c578080600190039150507f3031323334353637383961626364656600000000000000000000000000000000600a86061a8153600a8581611e4057611e3f61349b565b5b04945060008503611df7575b819350505050919050565b6000808273ffffffffffffffffffffffffffffffffffffffff163b119050919050565b600080600090507a184f03e93ff9f4daa797ed6e38ed64bf6a1f0100000000000000008310611ed8577a184f03e93ff9f4daa797ed6e38ed64bf6a1f0100000000000000008381611ece57611ecd61349b565b5b0492506040810190505b6d04ee2d6d415b85acef81000000008310611f15576d04ee2d6d415b85acef81000000008381611f0b57611f0a61349b565b5b0492506020810190505b662386f26fc100008310611f4457662386f26fc100008381611f3a57611f3961349b565b5b0492506010810190505b6305f5e1008310611f6d576305f5e1008381611f6357611f6261349b565b5b0492506008810190505b6127108310611f92576127108381611f8857611f8761349b565b5b0492506004810190505b60648310611fb55760648381611fab57611faa61349b565b5b0492506002810190505b600a8310611fc4576001810190505b80915050919050565b604051806060016040528060008152602001600073ffffffffffffffffffffffffffffffffffffffff168152602001600081525090565b6000604051905090565b600080fd5b600080fd5b60007fffffffff0000000000000000000000000000000000000000000000000000000082169050919050565b61204d81612018565b811461205857600080fd5b50565b60008135905061206a81612044565b92915050565b6000602082840312156120865761208561200e565b5b60006120948482850161205b565b91505092915050565b60008115159050919050565b6120b28161209d565b82525050565b60006020820190506120cd60008301846120a9565b92915050565b600081519050919050565b600082825260208201905092915050565b60005b8381101561210d5780820151818401526020810190506120f2565b60008484015250505050565b6000601f19601f8301169050919050565b6000612135826120d3565b61213f81856120de565b935061214f8185602086016120ef565b61215881612119565b840191505092915050565b6000602082019050818103600083015261217d818461212a565b905092915050565b6000819050919050565b61219881612185565b81146121a357600080fd5b50565b6000813590506121b58161218f565b92915050565b6000602082840312156121d1576121d061200e565b5b60006121df848285016121a6565b91505092915050565b600073ffffffffffffffffffffffffffffffffffffffff82169050919050565b6000612213826121e8565b9050919050565b61222381612208565b82525050565b600060208201905061223e600083018461221a565b92915050565b61224d81612208565b811461225857600080fd5b50565b60008135905061226a81612244565b92915050565b600080604083850312156122875761228661200e565b5b60006122958582860161225b565b92505060206122a6858286016121a6565b9150509250929050565b6000806000606084860312156122c9576122c861200e565b5b60006122d78682870161225b565b93505060206122e88682870161225b565b92505060406122f9868287016121a6565b9150509250925092565b600081519050919050565b600082825260208201905092915050565b6000819050602082019050919050565b61233881612185565b82525050565b61234781612208565b82525050565b606082016000820151612363600085018261232f565b506020820151612376602085018261233e565b506040820151612389604085018261232f565b50505050565b600061239b838361234d565b60608301905092915050565b6000602082019050919050565b60006123bf82612303565b6123c9818561230e565b93506123d48361231f565b8060005b838110156124055781516123ec888261238f565b97506123f7836123a7565b9250506001810190506123d8565b5085935050505092915050565b6000602082019050818103600083015261242c81846123b4565b905092915050565b60006020828403121561244a5761244961200e565b5b60006124588482850161225b565b91505092915050565b61246a81612185565b82525050565b60006020820190506124856000830184612461565b92915050565b600080604083850312156124a2576124a161200e565b5b60006124b0858286016121a6565b92505060206124c1858286016121a6565b9150509250929050565b6124d48161209d565b81146124df57600080fd5b50565b6000813590506124f1816124cb565b92915050565b6000806040838503121561250e5761250d61200e565b5b600061251c8582860161225b565b925050602061252d858286016124e2565b9150509250929050565b600080fd5b600080fd5b7f4e487b7100000000000000000000000000000000000000000000000000000000600052604160045260246000fd5b61257982612119565b810181811067ffffffffffffffff8211171561259857612597612541565b5b80604052505050565b60006125ab612004565b90506125b78282612570565b919050565b600067ffffffffffffffff8211156125d7576125d6612541565b5b6125e082612119565b9050602081019050919050565b82818337600083830152505050565b600061260f61260a846125bc565b6125a1565b90508281526020810184848401111561262b5761262a61253c565b5b6126368482856125ed565b509392505050565b600082601f83011261265357612652612537565b5b81356126638482602086016125fc565b91505092915050565b600080600080608085870312156126865761268561200e565b5b60006126948782880161225b565b94505060206126a58782880161225b565b93505060406126b6878288016121a6565b925050606085013567ffffffffffffffff8111156126d7576126d6612013565b5b6126e38782880161263e565b91505092959194509250565b600067ffffffffffffffff82111561270a57612709612541565b5b61271382612119565b9050602081019050919050565b600061273361272e846126ef565b6125a1565b90508281526020810184848401111561274f5761274e61253c565b5b61275a8482856125ed565b509392505050565b600082601f83011261277757612776612537565b5b8135612787848260208601612720565b91505092915050565b6000602082840312156127a6576127a561200e565b5b600082013567ffffffffffffffff8111156127c4576127c3612013565b5b6127d084828501612762565b91505092915050565b60006060820190506127ee6000830186612461565b6127fb602083018561221a565b6128086040830184612461565b949350505050565b600080604083850312156128275761282661200e565b5b60006128358582860161225b565b92505060206128468582860161225b565b9150509250929050565b7f4e487b7100000000000000000000000000000000000000000000000000000000600052602260045260246000fd5b6000600282049050600182168061289757607f821691505b6020821081036128aa576128a9612850565b5b50919050565b7f4552433732313a20617070726f76616c20746f2063757272656e74206f776e6560008201527f7200000000000000000000000000000000000000000000000000000000000000602082015250565b600061290c6021836120de565b9150612917826128b0565b604082019050919050565b6000602082019050818103600083015261293b816128ff565b9050919050565b7f4552433732313a20617070726f76652063616c6c6572206973206e6f7420746f60008201527f6b656e206f776e6572206f7220617070726f76656420666f7220616c6c000000602082015250565b600061299e603d836120de565b91506129a982612942565b604082019050919050565b600060208201905081810360008301526129cd81612991565b9050919050565b7f4552433732313a2063616c6c6572206973206e6f7420746f6b656e206f776e6560008201527f72206f7220617070726f76656400000000000000000000000000000000000000602082015250565b6000612a30602d836120de565b9150612a3b826129d4565b604082019050919050565b60006020820190508181036000830152612a5f81612a23565b9050919050565b7f4e487b7100000000000000000000000000000000000000000000000000000000600052601160045260246000fd5b6000612aa082612185565b91507fffffffffffffffffffffffffffffffffffffffffffffffffffffffffffffffff8203612ad257612ad1612a66565b5b600182019050919050565b7f4e487b7100000000000000000000000000000000000000000000000000000000600052603260045260246000fd5b7f4552433732313a20696e76616c696420746f6b656e2049440000000000000000600082015250565b6000612b426018836120de565b9150612b4d82612b0c565b602082019050919050565b60006020820190508181036000830152612b7181612b35565b9050919050565b7f4552433732313a2061646472657373207a65726f206973206e6f74206120766160008201527f6c6964206f776e65720000000000000000000000000000000000000000000000602082015250565b6000612bd46029836120de565b9150612bdf82612b78565b604082019050919050565b60006020820190508181036000830152612c0381612bc7565b9050919050565b7f42756b616e2070656d696c696b00000000000000000000000000000000000000600082015250565b6000612c40600d836120de565b9150612c4b82612c0a565b602082019050919050565b60006020820190508181036000830152612c6f81612c33565b9050919050565b600081905092915050565b6000612c8c826120d3565b612c968185612c76565b9350612ca68185602086016120ef565b80840191505092915050565b6000612cbe8285612c81565b9150612cca8284612c81565b91508190509392505050565b7f4974656d20746964616b20746572646166746172000000000000000000000000600082015250565b6000612d0c6014836120de565b9150612d1782612cd6565b602082019050919050565b60006020820190508181036000830152612d3b81612cff565b9050919050565b7f4261796172616e206b7572616e67000000000000000000000000000000000000600082015250565b6000612d78600e836120de565b9150612d8382612d42565b602082019050919050565b60006020820190508181036000830152612da781612d6b565b9050919050565b7f4552433732313a207472616e736665722066726f6d20696e636f72726563742060008201527f6f776e6572000000000000000000000000000000000000000000000000000000602082015250565b6000612e0a6025836120de565b9150612e1582612dae565b604082019050919050565b60006020820190508181036000830152612e3981612dfd565b9050919050565b7f4552433732313a207472616e7366657220746f20746865207a65726f2061646460008201527f7265737300000000000000000000000000000000000000000000000000000000602082015250565b6000612e9c6024836120de565b9150612ea782612e40565b604082019050919050565b60006020820190508181036000830152612ecb81612e8f565b9050919050565b7f4552433732313a20617070726f766520746f2063616c6c657200000000000000600082015250565b6000612f086019836120de565b9150612f1382612ed2565b602082019050919050565b60006020820190508181036000830152612f3781612efb565b9050919050565b7f4552433732313a207472616e7366657220746f206e6f6e20455243373231526560008201527f63656976657220696d706c656d656e7465720000000000000000000000000000602082015250565b6000612f9a6032836120de565b9150612fa582612f3e565b604082019050919050565b60006020820190508181036000830152612fc981612f8d565b9050919050565b7f4552433732313a206d696e7420746f20746865207a65726f2061646472657373600082015250565b60006130066020836120de565b915061301182612fd0565b602082019050919050565b6000602082019050818103600083015261303581612ff9565b9050919050565b7f4552433732313a20746f6b656e20616c7265616479206d696e74656400000000600082015250565b6000613072601c836120de565b915061307d8261303c565b602082019050919050565b600060208201905081810360008301526130a181613065565b9050919050565b7f45524337323155524953746f726167653a2055524920736574206f66206e6f6e60008201527f6578697374656e7420746f6b656e000000000000000000000000000000000000602082015250565b6000613104602e836120de565b915061310f826130a8565b604082019050919050565b60006020820190508181036000830152613133816130f7565b9050919050565b60008190508160005260206000209050919050565b60006020601f8301049050919050565b600082821b905092915050565b60006008830261319c7fffffffffffffffffffffffffffffffffffffffffffffffffffffffffffffffff8261315f565b6131a6868361315f565b95508019841693508086168417925050509392505050565b6000819050919050565b60006131e36131de6131d984612185565b6131be565b612185565b9050919050565b6000819050919050565b6131fd836131c8565b613211613209826131ea565b84845461316c565b825550505050565b600090565b613226613219565b6132318184846131f4565b505050565b5b818110156132555761324a60008261321e565b600181019050613237565b5050565b601f82111561329a5761326b8161313a565b6132748461314f565b81016020851015613283578190505b61329761328f8561314f565b830182613236565b50505b505050565b600082821c905092915050565b60006132bd6000198460080261329f565b1980831691505092915050565b60006132d683836132ac565b9150826002028217905092915050565b6132ef826120d3565b67ffffffffffffffff81111561330857613307612541565b5b613312825461287f565b61331d828285613259565b600060209050601f831160018114613350576000841561333e578287015190505b61334885826132ca565b8655506133b0565b601f19841661335e8661313a565b60005b8281101561338657848901518255600182019150602085019450602081019050613361565b868310156133a3578489015161339f601f8916826132ac565b8355505b6001600288020188555050505b505050505050565b600081519050919050565b600082825260208201905092915050565b60006133df826133b8565b6133e981856133c3565b93506133f98185602086016120ef565b61340281612119565b840191505092915050565b6000608082019050613422600083018761221a565b61342f602083018661221a565b61343c6040830185612461565b818103606083015261344e81846133d4565b905095945050505050565b60008151905061346881612044565b92915050565b6000602082840312156134845761348361200e565b5b600061349284828501613459565b91505092915050565b7f4e487b7100000000000000000000000000000000000000000000000000000000600052601260045260246000fdfea26469706673582212207bc55b982605497b151c24efc3f20a445a4d10ee698b6dd56c7027dca903cdf364736f6c634300081c0033",
  "linkReferences": {},
  "deployedLinkReferences": {}
}