{
  "_format": "hh-sol-artifact-1",
  "contractName": "NFTMarketplace",
  "sourceName": "contracts/NFTMarketplace.sol",
  "abi": [
    {
      "inputs": [],
      "stateMutability": "nonpayable",
      "type": "constructor"
    },
    {
      "anonymous": false,
      "inputs": [
        {
          "indexed": true,
          "internalType": "address",
          "name": "owner",
          "type": "address"
        },
        {
          "indexed": true,
          "internalType": "address",
          "name": "approved",
          "type": "address"
        },
        {
          "indexed": true,
          "internalType": "uint256",
          "name": "tokenId",
          "type": "uint256"
        }
      ],
      "name": "Approval",
      "type": "event"
    },
    {
      "anonymous": false,
      "inputs": [
        {
          "indexed": true,
          "internalType": "address",
          "name": "owner",
          "type": "address"
        },
        {
          "indexed": true,
          "internalType": "address",
          "name": "operator",
          "type": "address"
        },
        {
          "indexed": false,
          "internalType": "bool",
          "name": "approved",
          "type": "bool"
        }
      ],
      "name": "ApprovalForAll",
      "type": "event"
    },
    {
      "anonymous": false,
      "inputs": [
        {
          "indexed": false,
          "internalType": "uint256",
          "name": "_fromTokenId",
          "type": "uint256"
        },
        {
          "indexed": false,
          "internalType": "uint256",
          "name": "_toTokenId",
          "type": "uint256"
        }
      ],
      "name": "BatchMetadataUpdate",
      "type": "event"
    },
    {
      "anonymous": false,
      "inputs": [
        {
          "indexed": false,
          "internalType": "uint256",
          "name": "_tokenId",
          "type": "uint256"
        }
      ],
      "name": "MetadataUpdate",
      "type": "event"
    },
    {
      "anonymous": false,
      "inputs": [
        {
          "indexed": true,
          "internalType": "uint256",
          "name": "tokenId",
          "type": "uint256"
        },
        {
          "indexed": true,
          "internalType": "address",
          "name": "buyer",
          "type": "address"
        },
        {
          "indexed": false,
          "internalType": "address",
          "name": "seller",
          "type": "address"
        },
        {
          "indexed": false,
          "internalType": "uint256",
          "name": "price",
          "type": "uint256"
        }
      ],
      "name": "NFTBought",
      "type": "event"
    },
    {
      "anonymous": false,
      "inputs": [
        {
          "indexed": true,
          "internalType": "uint256",
          "name": "tokenId",
          "type": "uint256"
        },
        {
          "indexed": true,
          "internalType": "address",
          "name": "owner",
          "type": "address"
        },
        {
          "indexed": false,
          "internalType": "string",
          "name": "tokenURI",
          "type": "string"
        }
      ],
      "name": "NFTMinted",
      "type": "event"
    },
    {
      "anonymous": false,
      "inputs": [
        {
          "indexed": true,
          "internalType": "address",
          "name": "from",
          "type": "address"
        },
        {
          "indexed": true,
          "internalType": "address",
          "name": "to",
          "type": "address"
        },
        {
          "indexed": true,
          "internalType": "uint256",
          "name": "tokenId",
          "type": "uint256"
        }
      ],
      "name": "Transfer",
      "type": "event"
    },
    {
      "inputs": [
        {
          "internalType": "address",
          "name": "to",
          "type": "address"
        },
        {
          "internalType": "uint256",
          "name": "tokenId",
          "type": "uint256"
        }
      ],
      "name": "approve",
      "outputs": [],
      "stateMutability": "nonpayable",
      "type": "function"
    },
    {
      "inputs": [
        {
          "internalType": "address",
          "name": "owner",
          "type": "address"
        }
      ],
      "name": "balanceOf",
      "outputs": [
        {
          "internalType": "uint256",
          "name": "",
          "type": "uint256"
        }
      ],
      "stateMutability": "view",
      "type": "function"
    },
    {
      "inputs": [
        {
          "internalType": "uint256",
          "name": "tokenId",
          "type": "uint256"
        }
      ],
      "name": "buyItem",
      "outputs": [],
      "stateMutability": "payable",
      "type": "function"
    },
    {
      "inputs": [
        {
          "internalType": "uint256",
          "name": "tokenId",
          "type": "uint256"
        }
      ],
      "name": "getApproved",
      "outputs": [
        {
          "internalType": "address",
          "name": "",
          "type": "address"
        }
      ],
      "stateMutability": "view",
      "type": "function"
    },
    {
      "inputs": [],
      "name": "getAvailableNFTs",
      "outputs": [
        {
          "internalType": "uint256[]",
          "name": "tokenIds",
          "type": "uint256[]"
        },
        {
          "internalType": "address[]",
          "name": "sellers",
          "type": "address[]"
        },
        {
          "internalType": "uint256[]",
          "name": "prices",
          "type": "uint256[]"
        }
      ],
      "stateMutability": "view",
      "type": "function"
    },
    {
      "inputs": [
        {
          "internalType": "address",
          "name": "owner",
          "type": "address"
        },
        {
          "internalType": "address",
          "name": "operator",
          "type": "address"
        }
      ],
      "name": "isApprovedForAll",
      "outputs": [
        {
          "internalType": "bool",
          "name": "",
          "type": "bool"
        }
      ],
      "stateMutability": "view",
      "type": "function"
    },
    {
      "inputs": [
        {
          "internalType": "uint256",
          "name": "tokenId",
          "type": "uint256"
        },
        {
          "internalType": "uint256",
          "name": "price",
          "type": "uint256"
        }
      ],
      "name": "listItem",
      "outputs": [],
      "stateMutability": "nonpayable",
      "type": "function"
    },
    {
      "inputs": [
        {
          "internalType": "uint256",
          "name": "",
          "type": "uint256"
        }
      ],
      "name": "listings",
      "outputs": [
        {
          "internalType": "address",
          "name": "seller",
          "type": "address"
        },
        {
          "internalType": "uint256",
          "name": "price",
          "type": "uint256"
        }
      ],
      "stateMutability": "view",
      "type": "function"
    },
    {
      "inputs": [
        {
          "internalType": "string",
          "name": "tokenURI",
          "type": "string"
        }
      ],
      "name": "mint",
      "outputs": [
        {
          "internalType": "uint256",
          "name": "",
          "type": "uint256"
        }
      ],
      "stateMutability": "nonpayable",
      "type": "function"
    },
    {
      "inputs": [],
      "name": "name",
      "outputs": [
        {
          "internalType": "string",
          "name": "",
          "type": "string"
        }
      ],
      "stateMutability": "view",
      "type": "function"
    },
    {
      "inputs": [
        {
          "internalType": "uint256",
          "name": "tokenId",
          "type": "uint256"
        }
      ],
      "name": "ownerOf",
      "outputs": [
        {
          "internalType": "address",
          "name": "",
          "type": "address"
        }
      ],
      "stateMutability": "view",
      "type": "function"
    },
    {
      "inputs": [
        {
          "internalType": "address",
          "name": "from",
          "type": "address"
        },
        {
          "internalType": "address",
          "name": "to",
          "type": "address"
        },
        {
          "internalType": "uint256",
          "name": "tokenId",
          "type": "uint256"
        }
      ],
      "name": "safeTransferFrom",
      "outputs": [],
      "stateMutability": "nonpayable",
      "type": "function"
    },
    {
      "inputs": [
        {
          "internalType": "address",
          "name": "from",
          "type": "address"
        },
        {
          "internalType": "address",
          "name": "to",
          "type": "address"
        },
        {
          "internalType": "uint256",
          "name": "tokenId",
          "type": "uint256"
        },
        {
          "internalType": "bytes",
          "name": "data",
          "type": "bytes"
        }
      ],
      "name": "safeTransferFrom",
      "outputs": [],
      "stateMutability": "nonpayable",
      "type": "function"
    },
    {
      "inputs": [
        {
          "internalType": "address",
          "name": "operator",
          "type": "address"
        },
        {
          "internalType": "bool",
          "name": "approved",
          "type": "bool"
        }
      ],
      "name": "setApprovalForAll",
      "outputs": [],
      "stateMutability": "nonpayable",
      "type": "function"
    },
    {
      "inputs": [
        {
          "internalType": "bytes4",
          "name": "interfaceId",
          "type": "bytes4"
        }
      ],
      "name": "supportsInterface",
      "outputs": [
        {
          "internalType": "bool",
          "name": "",
          "type": "bool"
        }
      ],
      "stateMutability": "view",
      "type": "function"
    },
    {
      "inputs": [],
      "name": "symbol",
      "outputs": [
        {
          "internalType": "string",
          "name": "",
          "type": "string"
        }
      ],
      "stateMutability": "view",
      "type": "function"
    },
    {
      "inputs": [
        {
          "internalType": "uint256",
          "name": "tokenId",
          "type": "uint256"
        }
      ],
      "name": "tokenURI",
      "outputs": [
        {
          "internalType": "string",
          "name": "",
          "type": "string"
        }
      ],
      "stateMutability": "view",
      "type": "function"
    },
    {
      "inputs": [
        {
          "internalType": "address",
          "name": "from",
          "type": "address"
        },
        {
          "internalType": "address",
          "name": "to",
          "type": "address"
        },
        {
          "internalType": "uint256",
          "name": "tokenId",
          "type": "uint256"
        }
      ],
      "name": "transferFrom",
      "outputs": [],
      "stateMutability": "nonpayable",
      "type": "function"
    }
  ],
  "bytecode": "0x608060405234801561001057600080fd5b506040518060400160405280600781526020017f446166614e4654000000000000000000000000000000000000000000000000008152506040518060400160405280600481526020017f444e465400000000000000000000000000000000000000000000000000000000815250816000908161008c91906102f4565b50806001908161009c91906102f4565b5050506103c6565b600081519050919050565b7f4e487b7100000000000000000000000000000000000000000000000000000000600052604160045260246000fd5b7f4e487b7100000000000000000000000000000000000000000000000000000000600052602260045260246000fd5b6000600282049050600182168061012557607f821691505b602082108103610138576101376100de565b5b50919050565b60008190508160005260206000209050919050565b60006020601f8301049050919050565b600082821b905092915050565b6000600883026101a07fffffffffffffffffffffffffffffffffffffffffffffffffffffffffffffffff82610163565b6101aa8683610163565b95508019841693508086168417925050509392505050565b6000819050919050565b6000819050919050565b60006101f16101ec6101e7846101c2565b6101cc565b6101c2565b9050919050565b6000819050919050565b61020b836101d6565b61021f610217826101f8565b848454610170565b825550505050565b600090565b610234610227565b61023f818484610202565b505050565b5b818110156102635761025860008261022c565b600181019050610245565b5050565b601f8211156102a8576102798161013e565b61028284610153565b81016020851015610291578190505b6102a561029d85610153565b830182610244565b50505b505050565b600082821c905092915050565b60006102cb600019846008026102ad565b1980831691505092915050565b60006102e483836102ba565b9150826002028217905092915050565b6102fd826100a4565b67ffffffffffffffff811115610316576103156100af565b5b610320825461010d565b61032b828285610267565b600060209050601f83116001811461035e576000841561034c578287015190505b61035685826102d8565b8655506103be565b601f19841661036c8661013e565b60005b828110156103945784890151825560018201915060208501945060208101905061036f565b868310156103b157848901516103ad601f8916826102ba565b8355505b6001600288020188555050505b505050505050565b613721806103d56000396000f3fe6080604052600436106101095760003560e01c8063883efa6711610095578063c87b56dd11610064578063c87b56dd1461037b578063d85d3d27146103b8578063de74e57b146103f5578063e7fb74c714610433578063e985e9c51461044f57610109565b8063883efa67146102d557806395d89b41146102fe578063a22cb46514610329578063b88d4fde1461035257610109565b806323b872dd116100dc57806323b872dd146101dc57806332702c951461020557806342842e0e146102325780636352211e1461025b57806370a082311461029857610109565b806301ffc9a71461010e57806306fdde031461014b578063081812fc14610176578063095ea7b3146101b3575b600080fd5b34801561011a57600080fd5b5061013560048036038101906101309190612208565b61048c565b6040516101429190612250565b60405180910390f35b34801561015757600080fd5b506101606104ed565b60405161016d91906122fb565b60405180910390f35b34801561018257600080fd5b5061019d60048036038101906101989190612353565b61057f565b6040516101aa91906123c1565b60405180910390f35b3480156101bf57600080fd5b506101da60048036038101906101d59190612408565b6105c5565b005b3480156101e857600080fd5b5061020360048036038101906101fe9190612448565b6106dc565b005b34801561021157600080fd5b5061021a61073c565b60405161022993929190612617565b60405180910390f35b34801561023e57600080fd5b5061025960048036038101906102549190612448565b610a48565b005b34801561026757600080fd5b50610282600480360381019061027d9190612353565b610a68565b60405161028f91906123c1565b60405180910390f35b3480156102a457600080fd5b506102bf60048036038101906102ba9190612663565b610aee565b6040516102cc919061269f565b60405180910390f35b3480156102e157600080fd5b506102fc60048036038101906102f791906126ba565b610ba5565b005b34801561030a57600080fd5b50610313610cb1565b60405161032091906122fb565b60405180910390f35b34801561033557600080fd5b50610350600480360381019061034b9190612726565b610d43565b005b34801561035e57600080fd5b506103796004803603810190610374919061289b565b610d59565b005b34801561038757600080fd5b506103a2600480360381019061039d9190612353565b610dbb565b6040516103af91906122fb565b60405180910390f35b3480156103c457600080fd5b506103df60048036038101906103da91906129bf565b610ecd565b6040516103ec919061269f565b60405180910390f35b34801561040157600080fd5b5061041c60048036038101906104179190612353565b610f53565b60405161042a929190612a08565b60405180910390f35b61044d60048036038101906104489190612353565b610f97565b005b34801561045b57600080fd5b5061047660048036038101906104719190612a31565b6111a1565b6040516104839190612250565b60405180910390f35b6000634906490660e01b7bffffffffffffffffffffffffffffffffffffffffffffffffffffffff1916827bffffffffffffffffffffffffffffffffffffffffffffffffffffffff191614806104e657506104e582611235565b5b9050919050565b6060600080546104fc90612aa0565b80601f016020809104026020016040519081016040528092919081815260200182805461052890612aa0565b80156105755780601f1061054a57610100808354040283529160200191610575565b820191906000526020600020905b81548152906001019060200180831161055857829003601f168201915b5050505050905090565b600061058a82611317565b6004600083815260200190815260200160002060009054906101000a900473ffffffffffffffffffffffffffffffffffffffff169050919050565b60006105d082610a68565b90508073ffffffffffffffffffffffffffffffffffffffff168373ffffffffffffffffffffffffffffffffffffffff1603610640576040517f08c379a000000000000000000000000000000000000000000000000000000000815260040161063790612b43565b60405180910390fd5b8073ffffffffffffffffffffffffffffffffffffffff1661065f611362565b73ffffffffffffffffffffffffffffffffffffffff16148061068e575061068d81610688611362565b6111a1565b5b6106cd576040517f08c379a00000000000000000000000000000000000000000000000000000000081526004016106c490612bd5565b60405180910390fd5b6106d7838361136a565b505050565b6106ed6106e7611362565b82611423565b61072c576040517f08c379a000000000000000000000000000000000000000000000000000000000815260040161072390612c67565b60405180910390fd5b6107378383836114b8565b505050565b6060806060600061074d60076117b1565b9050600080600190505b8281116107e057600060086000838152602001908152602001600020600101541180156107b95750600073ffffffffffffffffffffffffffffffffffffffff166107a082610a68565b73ffffffffffffffffffffffffffffffffffffffff1614155b156107cd5781806107c990612cb6565b9250505b80806107d890612cb6565b915050610757565b5060008167ffffffffffffffff8111156107fd576107fc612770565b5b60405190808252806020026020018201604052801561082b5781602001602082028036833780820191505090505b50905060008267ffffffffffffffff81111561084a57610849612770565b5b6040519080825280602002602001820160405280156108785781602001602082028036833780820191505090505b50905060008367ffffffffffffffff81111561089757610896612770565b5b6040519080825280602002602001820160405280156108c55781602001602082028036833780820191505090505b509050600080600190505b868111610a3357600060086000838152602001908152602001600020600101541180156109325750600073ffffffffffffffffffffffffffffffffffffffff1661091982610a68565b73ffffffffffffffffffffffffffffffffffffffff1614155b15610a20578085838151811061094b5761094a612cfe565b5b6020026020010181815250506008600082815260200190815260200160002060000160009054906101000a900473ffffffffffffffffffffffffffffffffffffffff168483815181106109a1576109a0612cfe565b5b602002602001019073ffffffffffffffffffffffffffffffffffffffff16908173ffffffffffffffffffffffffffffffffffffffff16815250506008600082815260200190815260200160002060010154838381518110610a0557610a04612cfe565b5b6020026020010181815250508180610a1c90612cb6565b9250505b8080610a2b90612cb6565b9150506108d0565b50838383985098509850505050505050909192565b610a6383838360405180602001604052806000815250610d59565b505050565b600080610a74836117bf565b9050600073ffffffffffffffffffffffffffffffffffffffff168173ffffffffffffffffffffffffffffffffffffffff1603610ae5576040517f08c379a0000000000000000000000000000000000000000000000000000000008152600401610adc90612d79565b60405180910390fd5b80915050919050565b60008073ffffffffffffffffffffffffffffffffffffffff168273ffffffffffffffffffffffffffffffffffffffff1603610b5e576040517f08c379a0000000000000000000000000000000000000000000000000000000008152600401610b5590612e0b565b60405180910390fd5b600360008373ffffffffffffffffffffffffffffffffffffffff1673ffffffffffffffffffffffffffffffffffffffff168152602001908152602001600020549050919050565b3373ffffffffffffffffffffffffffffffffffffffff16610bc583610a68565b73ffffffffffffffffffffffffffffffffffffffff1614610c1b576040517f08c379a0000000000000000000000000000000000000000000000000000000008152600401610c1290612e77565b60405180910390fd5b60405180604001604052803373ffffffffffffffffffffffffffffffffffffffff168152602001828152506008600084815260200190815260200160002060008201518160000160006101000a81548173ffffffffffffffffffffffffffffffffffffffff021916908373ffffffffffffffffffffffffffffffffffffffff160217905550602082015181600101559050505050565b606060018054610cc090612aa0565b80601f0160208091040260200160405190810160405280929190818152602001828054610cec90612aa0565b8015610d395780601f10610d0e57610100808354040283529160200191610d39565b820191906000526020600020905b815481529060010190602001808311610d1c57829003601f168201915b5050505050905090565b610d55610d4e611362565b83836117fc565b5050565b610d6a610d64611362565b83611423565b610da9576040517f08c379a0000000000000000000000000000000000000000000000000000000008152600401610da090612c67565b60405180910390fd5b610db584848484611968565b50505050565b6060610dc682611317565b6000600660008481526020019081526020016000208054610de690612aa0565b80601f0160208091040260200160405190810160405280929190818152602001828054610e1290612aa0565b8015610e5f5780601f10610e3457610100808354040283529160200191610e5f565b820191906000526020600020905b815481529060010190602001808311610e4257829003601f168201915b505050505090506000610e706119c4565b90506000815103610e85578192505050610ec8565b600082511115610eba578082604051602001610ea2929190612ed3565b60405160208183030381529060405292505050610ec8565b610ec3846119db565b925050505b919050565b6000610ed96007611a43565b6000610ee560076117b1565b9050610ef13382611a59565b610efb8184611c76565b3373ffffffffffffffffffffffffffffffffffffffff16817f06becd955c918828f6e985541acbf49cc842c9e9bd569fffc7698e721ef1357585604051610f4291906122fb565b60405180910390a380915050919050565b60086020528060005260406000206000915090508060000160009054906101000a900473ffffffffffffffffffffffffffffffffffffffff16908060010154905082565b6000600860008381526020019081526020016000206040518060400160405290816000820160009054906101000a900473ffffffffffffffffffffffffffffffffffffffff1673ffffffffffffffffffffffffffffffffffffffff1673ffffffffffffffffffffffffffffffffffffffff16815260200160018201548152505090506000816020015111611060576040517f08c379a000000000000000000000000000000000000000000000000000000000815260040161105790612f43565b60405180910390fd5b80602001513410156110a7576040517f08c379a000000000000000000000000000000000000000000000000000000000815260040161109e90612faf565b60405180910390fd5b6000816000015190506110bb8133856114b8565b8073ffffffffffffffffffffffffffffffffffffffff166108fc349081150290604051600060405180830381858888f19350505050158015611101573d6000803e3d6000fd5b5060086000848152602001908152602001600020600080820160006101000a81549073ffffffffffffffffffffffffffffffffffffffff0219169055600182016000905550503373ffffffffffffffffffffffffffffffffffffffff16837fc55254892a1711b67c27fcc61c33145acd745d88047198774c9f479bd2fab72e838560200151604051611194929190612a08565b60405180910390a3505050565b6000600560008473ffffffffffffffffffffffffffffffffffffffff1673ffffffffffffffffffffffffffffffffffffffff16815260200190815260200160002060008373ffffffffffffffffffffffffffffffffffffffff1673ffffffffffffffffffffffffffffffffffffffff16815260200190815260200160002060009054906101000a900460ff16905092915050565b60007f80ac58cd000000000000000000000000000000000000000000000000000000007bffffffffffffffffffffffffffffffffffffffffffffffffffffffff1916827bffffffffffffffffffffffffffffffffffffffffffffffffffffffff1916148061130057507f5b5e139f000000000000000000000000000000000000000000000000000000007bffffffffffffffffffffffffffffffffffffffffffffffffffffffff1916827bffffffffffffffffffffffffffffffffffffffffffffffffffffffff1916145b80611310575061130f82611d1a565b5b9050919050565b61132081611d84565b61135f576040517f08c379a000000000000000000000000000000000000000000000000000000000815260040161135690612d79565b60405180910390fd5b50565b600033905090565b816004600083815260200190815260200160002060006101000a81548173ffffffffffffffffffffffffffffffffffffffff021916908373ffffffffffffffffffffffffffffffffffffffff160217905550808273ffffffffffffffffffffffffffffffffffffffff166113dd83610a68565b73ffffffffffffffffffffffffffffffffffffffff167f8c5be1e5ebec7d5bd14f71427d1e84f3dd0314c0f7b2291e5b200ac8c7c3b92560405160405180910390a45050565b60008061142f83610a68565b90508073ffffffffffffffffffffffffffffffffffffffff168473ffffffffffffffffffffffffffffffffffffffff161480611471575061147081856111a1565b5b806114af57508373ffffffffffffffffffffffffffffffffffffffff166114978461057f565b73ffffffffffffffffffffffffffffffffffffffff16145b91505092915050565b8273ffffffffffffffffffffffffffffffffffffffff166114d882610a68565b73ffffffffffffffffffffffffffffffffffffffff161461152e576040517f08c379a000000000000000000000000000000000000000000000000000000000815260040161152590613041565b60405180910390fd5b600073ffffffffffffffffffffffffffffffffffffffff168273ffffffffffffffffffffffffffffffffffffffff160361159d576040517f08c379a0000000000000000000000000000000000000000000000000000000008152600401611594906130d3565b60405180910390fd5b6115aa8383836001611dc5565b8273ffffffffffffffffffffffffffffffffffffffff166115ca82610a68565b73ffffffffffffffffffffffffffffffffffffffff1614611620576040517f08c379a000000000000000000000000000000000000000000000000000000000815260040161161790613041565b60405180910390fd5b6004600082815260200190815260200160002060006101000a81549073ffffffffffffffffffffffffffffffffffffffff02191690556001600360008573ffffffffffffffffffffffffffffffffffffffff1673ffffffffffffffffffffffffffffffffffffffff168152602001908152602001600020600082825403925050819055506001600360008473ffffffffffffffffffffffffffffffffffffffff1673ffffffffffffffffffffffffffffffffffffffff16815260200190815260200160002060008282540192505081905550816002600083815260200190815260200160002060006101000a81548173ffffffffffffffffffffffffffffffffffffffff021916908373ffffffffffffffffffffffffffffffffffffffff160217905550808273ffffffffffffffffffffffffffffffffffffffff168473ffffffffffffffffffffffffffffffffffffffff167fddf252ad1be2c89b69c2b068fc378daa952ba7f163c4a11628f55a4df523b3ef60405160405180910390a46117ac8383836001611dcb565b505050565b600081600001549050919050565b60006002600083815260200190815260200160002060009054906101000a900473ffffffffffffffffffffffffffffffffffffffff169050919050565b8173ffffffffffffffffffffffffffffffffffffffff168373ffffffffffffffffffffffffffffffffffffffff160361186a576040517f08c379a00000000000000000000000000000000000000000000000000000000081526004016118619061313f565b60405180910390fd5b80600560008573ffffffffffffffffffffffffffffffffffffffff1673ffffffffffffffffffffffffffffffffffffffff16815260200190815260200160002060008473ffffffffffffffffffffffffffffffffffffffff1673ffffffffffffffffffffffffffffffffffffffff16815260200190815260200160002060006101000a81548160ff0219169083151502179055508173ffffffffffffffffffffffffffffffffffffffff168373ffffffffffffffffffffffffffffffffffffffff167f17307eab39ab6107e8899845ad3d59bd9653f200f220920489ca2b5937696c318360405161195b9190612250565b60405180910390a3505050565b6119738484846114b8565b61197f84848484611dd1565b6119be576040517f08c379a00000000000000000000000000000000000000000000000000000000081526004016119b5906131d1565b60405180910390fd5b50505050565b606060405180602001604052806000815250905090565b60606119e682611317565b60006119f06119c4565b90506000815111611a105760405180602001604052806000815250611a3b565b80611a1a84611f58565b604051602001611a2b929190612ed3565b6040516020818303038152906040525b915050919050565b6001816000016000828254019250508190555050565b600073ffffffffffffffffffffffffffffffffffffffff168273ffffffffffffffffffffffffffffffffffffffff1603611ac8576040517f08c379a0000000000000000000000000000000000000000000000000000000008152600401611abf9061323d565b60405180910390fd5b611ad181611d84565b15611b11576040517f08c379a0000000000000000000000000000000000000000000000000000000008152600401611b08906132a9565b60405180910390fd5b611b1f600083836001611dc5565b611b2881611d84565b15611b68576040517f08c379a0000000000000000000000000000000000000000000000000000000008152600401611b5f906132a9565b60405180910390fd5b6001600360008473ffffffffffffffffffffffffffffffffffffffff1673ffffffffffffffffffffffffffffffffffffffff16815260200190815260200160002060008282540192505081905550816002600083815260200190815260200160002060006101000a81548173ffffffffffffffffffffffffffffffffffffffff021916908373ffffffffffffffffffffffffffffffffffffffff160217905550808273ffffffffffffffffffffffffffffffffffffffff16600073ffffffffffffffffffffffffffffffffffffffff167fddf252ad1be2c89b69c2b068fc378daa952ba7f163c4a11628f55a4df523b3ef60405160405180910390a4611c72600083836001611dcb565b5050565b611c7f82611d84565b611cbe576040517f08c379a0000000000000000000000000000000000000000000000000000000008152600401611cb59061333b565b60405180910390fd5b80600660008481526020019081526020016000209081611cde9190613507565b507ff8e1a15aba9398e019f0b49df1a4fde98ee17ae345cb5f6b5e2c27f5033e8ce782604051611d0e919061269f565b60405180910390a15050565b60007f01ffc9a7000000000000000000000000000000000000000000000000000000007bffffffffffffffffffffffffffffffffffffffffffffffffffffffff1916827bffffffffffffffffffffffffffffffffffffffffffffffffffffffff1916149050919050565b60008073ffffffffffffffffffffffffffffffffffffffff16611da6836117bf565b73ffffffffffffffffffffffffffffffffffffffff1614159050919050565b50505050565b50505050565b6000611df28473ffffffffffffffffffffffffffffffffffffffff16612026565b15611f4b578373ffffffffffffffffffffffffffffffffffffffff1663150b7a02611e1b611362565b8786866040518563ffffffff1660e01b8152600401611e3d949392919061362e565b6020604051808303816000875af1925050508015611e7957506040513d601f19601f82011682018060405250810190611e76919061368f565b60015b611efb573d8060008114611ea9576040519150601f19603f3d011682016040523d82523d6000602084013e611eae565b606091505b506000815103611ef3576040517f08c379a0000000000000000000000000000000000000000000000000000000008152600401611eea906131d1565b60405180910390fd5b805181602001fd5b63150b7a0260e01b7bffffffffffffffffffffffffffffffffffffffffffffffffffffffff1916817bffffffffffffffffffffffffffffffffffffffffffffffffffffffff191614915050611f50565b600190505b949350505050565b606060006001611f6784612049565b01905060008167ffffffffffffffff811115611f8657611f85612770565b5b6040519080825280601f01601f191660200182016040528015611fb85781602001600182028036833780820191505090505b509050600082602001820190505b60011561201b578080600190039150507f3031323334353637383961626364656600000000000000000000000000000000600a86061a8153600a858161200f5761200e6136bc565b5b04945060008503611fc6575b819350505050919050565b6000808273ffffffffffffffffffffffffffffffffffffffff163b119050919050565b600080600090507a184f03e93ff9f4daa797ed6e38ed64bf6a1f01000000000000000083106120a7577a184f03e93ff9f4daa797ed6e38ed64bf6a1f010000000000000000838161209d5761209c6136bc565b5b0492506040810190505b6d04ee2d6d415b85acef810000000083106120e4576d04ee2d6d415b85acef810000000083816120da576120d96136bc565b5b0492506020810190505b662386f26fc10000831061211357662386f26fc100008381612109576121086136bc565b5b0492506010810190505b6305f5e100831061213c576305f5e1008381612132576121316136bc565b5b0492506008810190505b6127108310612161576127108381612157576121566136bc565b5b0492506004810190505b60648310612184576064838161217a576121796136bc565b5b0492506002810190505b600a8310612193576001810190505b80915050919050565b6000604051905090565b600080fd5b600080fd5b60007fffffffff0000000000000000000000000000000000000000000000000000000082169050919050565b6121e5816121b0565b81146121f057600080fd5b50565b600081359050612202816121dc565b92915050565b60006020828403121561221e5761221d6121a6565b5b600061222c848285016121f3565b91505092915050565b60008115159050919050565b61224a81612235565b82525050565b60006020820190506122656000830184612241565b92915050565b600081519050919050565b600082825260208201905092915050565b60005b838110156122a557808201518184015260208101905061228a565b60008484015250505050565b6000601f19601f8301169050919050565b60006122cd8261226b565b6122d78185612276565b93506122e7818560208601612287565b6122f0816122b1565b840191505092915050565b6000602082019050818103600083015261231581846122c2565b905092915050565b6000819050919050565b6123308161231d565b811461233b57600080fd5b50565b60008135905061234d81612327565b92915050565b600060208284031215612369576123686121a6565b5b60006123778482850161233e565b91505092915050565b600073ffffffffffffffffffffffffffffffffffffffff82169050919050565b60006123ab82612380565b9050919050565b6123bb816123a0565b82525050565b60006020820190506123d660008301846123b2565b92915050565b6123e5816123a0565b81146123f057600080fd5b50565b600081359050612402816123dc565b92915050565b6000806040838503121561241f5761241e6121a6565b5b600061242d858286016123f3565b925050602061243e8582860161233e565b9150509250929050565b600080600060608486031215612461576124606121a6565b5b600061246f868287016123f3565b9350506020612480868287016123f3565b92505060406124918682870161233e565b9150509250925092565b600081519050919050565b600082825260208201905092915050565b6000819050602082019050919050565b6124d08161231d565b82525050565b60006124e283836124c7565b60208301905092915050565b6000602082019050919050565b60006125068261249b565b61251081856124a6565b935061251b836124b7565b8060005b8381101561254c57815161253388826124d6565b975061253e836124ee565b92505060018101905061251f565b5085935050505092915050565b600081519050919050565b600082825260208201905092915050565b6000819050602082019050919050565b61258e816123a0565b82525050565b60006125a08383612585565b60208301905092915050565b6000602082019050919050565b60006125c482612559565b6125ce8185612564565b93506125d983612575565b8060005b8381101561260a5781516125f18882612594565b97506125fc836125ac565b9250506001810190506125dd565b5085935050505092915050565b6000606082019050818103600083015261263181866124fb565b9050818103602083015261264581856125b9565b9050818103604083015261265981846124fb565b9050949350505050565b600060208284031215612679576126786121a6565b5b6000612687848285016123f3565b91505092915050565b6126998161231d565b82525050565b60006020820190506126b46000830184612690565b92915050565b600080604083850312156126d1576126d06121a6565b5b60006126df8582860161233e565b92505060206126f08582860161233e565b9150509250929050565b61270381612235565b811461270e57600080fd5b50565b600081359050612720816126fa565b92915050565b6000806040838503121561273d5761273c6121a6565b5b600061274b858286016123f3565b925050602061275c85828601612711565b9150509250929050565b600080fd5b600080fd5b7f4e487b7100000000000000000000000000000000000000000000000000000000600052604160045260246000fd5b6127a8826122b1565b810181811067ffffffffffffffff821117156127c7576127c6612770565b5b80604052505050565b60006127da61219c565b90506127e6828261279f565b919050565b600067ffffffffffffffff82111561280657612805612770565b5b61280f826122b1565b9050602081019050919050565b82818337600083830152505050565b600061283e612839846127eb565b6127d0565b90508281526020810184848401111561285a5761285961276b565b5b61286584828561281c565b509392505050565b600082601f83011261288257612881612766565b5b813561289284826020860161282b565b91505092915050565b600080600080608085870312156128b5576128b46121a6565b5b60006128c3878288016123f3565b94505060206128d4878288016123f3565b93505060406128e58782880161233e565b925050606085013567ffffffffffffffff811115612906576129056121ab565b5b6129128782880161286d565b91505092959194509250565b600067ffffffffffffffff82111561293957612938612770565b5b612942826122b1565b9050602081019050919050565b600061296261295d8461291e565b6127d0565b90508281526020810184848401111561297e5761297d61276b565b5b61298984828561281c565b509392505050565b600082601f8301126129a6576129a5612766565b5b81356129b684826020860161294f565b91505092915050565b6000602082840312156129d5576129d46121a6565b5b600082013567ffffffffffffffff8111156129f3576129f26121ab565b5b6129ff84828501612991565b91505092915050565b6000604082019050612a1d60008301856123b2565b612a2a6020830184612690565b9392505050565b60008060408385031215612a4857612a476121a6565b5b6000612a56858286016123f3565b9250506020612a67858286016123f3565b9150509250929050565b7f4e487b7100000000000000000000000000000000000000000000000000000000600052602260045260246000fd5b60006002820490506001821680612ab857607f821691505b602082108103612acb57612aca612a71565b5b50919050565b7f4552433732313a20617070726f76616c20746f2063757272656e74206f776e6560008201527f7200000000000000000000000000000000000000000000000000000000000000602082015250565b6000612b2d602183612276565b9150612b3882612ad1565b604082019050919050565b60006020820190508181036000830152612b5c81612b20565b9050919050565b7f4552433732313a20617070726f76652063616c6c6572206973206e6f7420746f60008201527f6b656e206f776e6572206f7220617070726f76656420666f7220616c6c000000602082015250565b6000612bbf603d83612276565b9150612bca82612b63565b604082019050919050565b60006020820190508181036000830152612bee81612bb2565b9050919050565b7f4552433732313a2063616c6c6572206973206e6f7420746f6b656e206f776e6560008201527f72206f7220617070726f76656400000000000000000000000000000000000000602082015250565b6000612c51602d83612276565b9150612c5c82612bf5565b604082019050919050565b60006020820190508181036000830152612c8081612c44565b9050919050565b7f4e487b7100000000000000000000000000000000000000000000000000000000600052601160045260246000fd5b6000612cc18261231d565b91507fffffffffffffffffffffffffffffffffffffffffffffffffffffffffffffffff8203612cf357612cf2612c87565b5b600182019050919050565b7f4e487b7100000000000000000000000000000000000000000000000000000000600052603260045260246000fd5b7f4552433732313a20696e76616c696420746f6b656e2049440000000000000000600082015250565b6000612d63601883612276565b9150612d6e82612d2d565b602082019050919050565b60006020820190508181036000830152612d9281612d56565b9050919050565b7f4552433732313a2061646472657373207a65726f206973206e6f74206120766160008201527f6c6964206f776e65720000000000000000000000000000000000000000000000602082015250565b6000612df5602983612276565b9150612e0082612d99565b604082019050919050565b60006020820190508181036000830152612e2481612de8565b9050919050565b7f42756b616e2070656d696c696b00000000000000000000000000000000000000600082015250565b6000612e61600d83612276565b9150612e6c82612e2b565b602082019050919050565b60006020820190508181036000830152612e9081612e54565b9050919050565b600081905092915050565b6000612ead8261226b565b612eb78185612e97565b9350612ec7818560208601612287565b80840191505092915050565b6000612edf8285612ea2565b9150612eeb8284612ea2565b91508190509392505050565b7f4974656d20746964616b20746572646166746172000000000000000000000000600082015250565b6000612f2d601483612276565b9150612f3882612ef7565b602082019050919050565b60006020820190508181036000830152612f5c81612f20565b9050919050565b7f4261796172616e206b7572616e67000000000000000000000000000000000000600082015250565b6000612f99600e83612276565b9150612fa482612f63565b602082019050919050565b60006020820190508181036000830152612fc881612f8c565b9050919050565b7f4552433732313a207472616e736665722066726f6d20696e636f72726563742060008201527f6f776e6572000000000000000000000000000000000000000000000000000000602082015250565b600061302b602583612276565b915061303682612fcf565b604082019050919050565b6000602082019050818103600083015261305a8161301e565b9050919050565b7f4552433732313a207472616e7366657220746f20746865207a65726f2061646460008201527f7265737300000000000000000000000000000000000000000000000000000000602082015250565b60006130bd602483612276565b91506130c882613061565b604082019050919050565b600060208201905081810360008301526130ec816130b0565b9050919050565b7f4552433732313a20617070726f766520746f2063616c6c657200000000000000600082015250565b6000613129601983612276565b9150613134826130f3565b602082019050919050565b600060208201905081810360008301526131588161311c565b9050919050565b7f4552433732313a207472616e7366657220746f206e6f6e20455243373231526560008201527f63656976657220696d706c656d656e7465720000000000000000000000000000602082015250565b60006131bb603283612276565b91506131c68261315f565b604082019050919050565b600060208201905081810360008301526131ea816131ae565b9050919050565b7f4552433732313a206d696e7420746f20746865207a65726f2061646472657373600082015250565b6000613227602083612276565b9150613232826131f1565b602082019050919050565b600060208201905081810360008301526132568161321a565b9050919050565b7f4552433732313a20746f6b656e20616c7265616479206d696e74656400000000600082015250565b6000613293601c83612276565b915061329e8261325d565b602082019050919050565b600060208201905081810360008301526132c281613286565b9050919050565b7f45524337323155524953746f726167653a2055524920736574206f66206e6f6e60008201527f6578697374656e7420746f6b656e000000000000000000000000000000000000602082015250565b6000613325602e83612276565b9150613330826132c9565b604082019050919050565b6000602082019050818103600083015261335481613318565b9050919050565b60008190508160005260206000209050919050565b60006020601f8301049050919050565b600082821b905092915050565b6000600883026133bd7fffffffffffffffffffffffffffffffffffffffffffffffffffffffffffffffff82613380565b6133c78683613380565b95508019841693508086168417925050509392505050565b6000819050919050565b60006134046133ff6133fa8461231d565b6133df565b61231d565b9050919050565b6000819050919050565b61341e836133e9565b61343261342a8261340b565b84845461338d565b825550505050565b600090565b61344761343a565b613452818484613415565b505050565b5b818110156134765761346b60008261343f565b600181019050613458565b5050565b601f8211156134bb5761348c8161335b565b61349584613370565b810160208510156134a4578190505b6134b86134b085613370565b830182613457565b50505b505050565b600082821c905092915050565b60006134de600019846008026134c0565b1980831691505092915050565b60006134f783836134cd565b9150826002028217905092915050565b6135108261226b565b67ffffffffffffffff81111561352957613528612770565b5b6135338254612aa0565b61353e82828561347a565b600060209050601f831160018114613571576000841561355f578287015190505b61356985826134eb565b8655506135d1565b601f19841661357f8661335b565b60005b828110156135a757848901518255600182019150602085019450602081019050613582565b868310156135c457848901516135c0601f8916826134cd565b8355505b6001600288020188555050505b505050505050565b600081519050919050565b600082825260208201905092915050565b6000613600826135d9565b61360a81856135e4565b935061361a818560208601612287565b613623816122b1565b840191505092915050565b600060808201905061364360008301876123b2565b61365060208301866123b2565b61365d6040830185612690565b818103606083015261366f81846135f5565b905095945050505050565b600081519050613689816121dc565b92915050565b6000602082840312156136a5576136a46121a6565b5b60006136b38482850161367a565b91505092915050565b7f4e487b7100000000000000000000000000000000000000000000000000000000600052601260045260246000fdfea2646970667358221220955d0a943b2c0468e6e0a954a5db7252509798bd2e75a56a3dca90aa8389f3f964736f6c634300081c0033",
  "linkReferences": {},
  "deployedLinkReferences": {}
}